:100000000C942A000C943C000C943C000C943C0092
:100010000C9482080C944F080C943D090C944D09E3
:100020000C9479090C9489090C948F070C945C0743
:100030000C943C000C943C000C943C000C943C0050
:100040000C943C000C943C000C943C000C943C0040
:100050000C943C0011241FBECFE5D8E0DEBFCDBF1D
:1000600010E0A0E6B0E001C01D92A836B107E1F7AC
:100070000E9499090C94E6090C940000DF93CF9339
:10008000CDB7DEB729970FB6F894DEBF0FBECDBF50
:1000900089836A834B838B81282F30E039872887B7
:1000A00088859985009739F0288539852130310573
:1000B00009F475C0E2C08981282F30E03F832E8388
:1000C0008E819F818130910559F12E813F812230AF
:1000D00031052CF48E819F81009769F0CEC02E816E
:1000E0003F812230310589F18E819F8183309105D6
:1000F00009F440C0C2C0AAE3B0E0EAE3F0E08081C6
:10010000482F8A81282F30E081E090E0022E02C043
:10011000880F991F0A94E2F7809584238C93ADC0D1
:10012000A7E3B0E0E7E3F0E08081482F8A81282F41
:1001300030E081E090E0022E02C0880F991F0A94FF
:10014000E2F7809584238C9398C0A4E3B0E0E4E3C5
:10015000F0E08081482F8A81282F30E081E090E014
:10016000022E02C0880F991F0A94E2F7809584231B
:100170008C9383C0A1E3B0E0E1E3F0E08081482FFD
:100180008A81282F30E081E090E0022E02C0880FA3
:10019000991F0A94E2F7809584238C936EC089811D
:1001A000282F30E03D832C838C819D818130910507
:1001B00049F12C813D81223031052CF48C819D81C7
:1001C000009761F05AC02C813D812230310571F1D8
:1001D0008C819D8183309105E9F14FC0AAE3B0E0A5
:1001E000EAE3F0E08081482F8A81282F30E081E027
:1001F00090E0022E02C0880F991F0A94E2F7842B28
:100200008C933BC0A7E3B0E0E7E3F0E08081482FA8
:100210008A81282F30E081E090E0022E02C0880F12
:10022000991F0A94E2F7842B8C9327C0A4E3B0E0D3
:10023000E4E3F0E08081482F8A81282F30E081E0DC
:1002400090E0022E02C0880F991F0A94E2F7842BD7
:100250008C9313C0A1E3B0E0E1E3F0E08081482F8C
:100260008A81282F30E081E090E0022E02C0880FC2
:10027000991F0A94E2F7842B8C9329960FB6F89471
:10028000DEBF0FBECDBFCF91DF910895DF93CF9337
:10029000CDB7DEB729970FB6F894DEBF0FBECDBF3E
:1002A00089836A834B838B81282F30E039872887A5
:1002B00088859985009739F0288539852130310561
:1002C00009F475C0E2C08981282F30E03F832E8376
:1002D0008E819F818130910559F12E813F8122309D
:1002E00031052CF48E819F81009769F0CEC02E815C
:1002F0003F812230310589F18E819F8183309105C4
:1003000009F440C0C2C0ABE3B0E0EBE3F0E08081B1
:10031000482F8A81282F30E081E090E0022E02C031
:10032000880F991F0A94E2F7809584238C93ADC0BF
:10033000A8E3B0E0E8E3F0E08081482F8A81282F2D
:1003400030E081E090E0022E02C0880F991F0A94ED
:10035000E2F7809584238C9398C0A5E3B0E0E5E3B1
:10036000F0E08081482F8A81282F30E081E090E002
:10037000022E02C0880F991F0A94E2F78095842309
:100380008C9383C0A2E3B0E0E2E3F0E08081482FE9
:100390008A81282F30E081E090E0022E02C0880F91
:1003A000991F0A94E2F7809584238C936EC089810B
:1003B000282F30E03D832C838C819D8181309105F5
:1003C00049F12C813D81223031052CF48C819D81B5
:1003D000009761F05AC02C813D812230310571F1C6
:1003E0008C819D8183309105E9F14FC0ABE3B0E092
:1003F000EBE3F0E08081482F8A81282F30E081E014
:1004000090E0022E02C0880F991F0A94E2F7842B15
:100410008C933BC0A8E3B0E0E8E3F0E08081482F94
:100420008A81282F30E081E090E0022E02C0880F00
:10043000991F0A94E2F7842B8C9327C0A5E3B0E0C0
:10044000E5E3F0E08081482F8A81282F30E081E0C9
:1004500090E0022E02C0880F991F0A94E2F7842BC5
:100460008C9313C0A2E3B0E0E2E3F0E08081482F78
:100470008A81282F30E081E090E0022E02C0880FB0
:10048000991F0A94E2F7842B8C9329960FB6F8945F
:10049000DEBF0FBECDBFCF91DF910895DF93CF9325
:1004A00000D000D0CDB7DEB789836A838981282F39
:1004B00030E03C832B838B819C818130910509F452
:1004C0003EC02B813C81223031052CF48B819C81F4
:1004D000009771F0A8C02B813C812230310509F4CE
:1004E00055C08B819C818330910509F476C09BC0F7
:1004F000AAE3B0E0EAE3F0E08081482F8A81282F68
:1005000030E081E090E002C0880F991F2A95E2F761
:10051000809584238C93ABE3B0E0EBE3F0E0808143
:10052000482F8A81282F30E081E090E0022E02C01F
:10053000880F991F0A94E2F7842B8C9374C0A7E369
:10054000B0E0E7E3F0E08081482F8A81282F30E097
:1005500081E090E002C0880F991F2A95E2F780950C
:1005600084238C93A8E3B0E0E8E3F0E08081482F97
:100570008A81282F30E081E090E0022E02C0880FAF
:10058000991F0A94E2F7842B8C934DC0A4E3B0E04A
:10059000E4E3F0E08081482F8A81282F30E081E079
:1005A00090E002C0880F991F2A95E2F78095842376
:1005B0008C93A5E3B0E0E5E3F0E08081482F8A81E9
:1005C000282F30E081E090E0022E02C0880F991FB2
:1005D0000A94E2F7842B8C9326C0A1E3B0E0E1E318
:1005E000F0E08081482F8A81282F30E081E090E080
:1005F00002C0880F991F2A95E2F7809584238C9377
:10060000A2E3B0E0E2E3F0E08081482F8A81282F66
:1006100030E081E090E0022E02C0880F991F0A941A
:10062000E2F7842B8C930F900F900F900F90CF9147
:10063000DF910895DF93CF9300D000D0CDB7DEB720
:1006400089836A838981282F30E03C832B838B81C7
:100650009C818130910549F12B813C81223031050B
:100660002CF48B819C81009761F05AC02B813C81D6
:100670002230310571F18B819C8183309105E9F144
:100680004FC0AAE3B0E0EAE3F0E08081482F8A811E
:10069000282F30E081E090E0022E02C0880F991FE1
:1006A0000A94E2F784278C933BC0A7E3B0E0E7E32A
:1006B000F0E08081482F8A81282F30E081E090E0AF
:1006C000022E02C0880F991F0A94E2F784278C93A8
:1006D00027C0A4E3B0E0E4E3F0E08081482F8A8102
:1006E000282F30E081E090E0022E02C0880F991F91
:1006F0000A94E2F784278C9313C0A1E3B0E0E1E30E
:10070000F0E08081482F8A81282F30E081E090E05E
:10071000022E02C0880F991F0A94E2F784278C9357
:100720000F900F900F900F90CF91DF910895DF936E
:10073000CF9300D000D0CDB7DEB789836A8389819B
:10074000282F30E03C832B838B819C818130910565
:1007500049F12B813C81223031052CF48B819C8125
:10076000009761F05AC02B813C812230310571F134
:100770008B819C8183309105E9F14FC0ABE3B0E000
:10078000EBE3F0E08081482F8A81282F30E081E080
:1007900090E0022E02C0880F991F0A94E2F7842786
:1007A0008C933BC0A8E3B0E0E8E3F0E08081482F01
:1007B0008A81282F30E081E090E0022E02C0880F6D
:1007C000991F0A94E2F784278C9327C0A5E3B0E031
:1007D000E5E3F0E08081482F8A81282F30E081E036
:1007E00090E0022E02C0880F991F0A94E2F7842736
:1007F0008C9313C0A2E3B0E0E2E3F0E08081482FE5
:100800008A81282F30E081E090E0022E02C0880F1C
:10081000991F0A94E2F784278C930F900F900F9002
:100820000F90CF91DF910895DF93CF9300D000D048
:10083000CDB7DEB789836A838981282F30E03C8376
:100840002B838B819C8181309105D1F02B813C8160
:10085000223031052CF48B819C81009761F01EC001
:100860002B813C812230310581F08B819C8183304A
:10087000910581F013C0EAE3F0E08A8180830EC025
:10088000E7E3F0E08A81808309C0E4E3F0E08A8155
:10089000808304C0E1E3F0E08A8180830F900F90B1
:1008A0000F900F90CF91DF910895DF93CF9300D0F9
:1008B00000D0CDB7DEB789836A838981282F30E0E5
:1008C0003C832B838B819C8181309105D1F02B81DE
:1008D0003C81223031052CF48B819C81009761F0A2
:1008E0001EC02B813C812230310581F08B819C819F
:1008F0008330910581F013C0EBE3F0E08A818083BF
:100900000EC0E8E3F0E08A81808309C0E5E3F0E00F
:100910008A81808304C0E2E3F0E08A8180830F90C3
:100920000F900F900F90CF91DF910895DF93CF93A9
:1009300000D000D0CDB7DEB78A838A81282F30E07F
:100940003C832B838B819C8181309105D1F02B815D
:100950003C81223031052CF48B819C81009761F021
:100960001EC02B813C812230310581F08B819C811E
:100970008330910581F013C0E9E3F0E08081898341
:100980000EC0E6E3F0E08081898309C0E3E3F0E094
:100990008081898304C0E0E3F0E0808189838981DC
:1009A0000F900F900F900F90CF91DF910895DF93EC
:1009B000CF9300D000D00F92CDB7DEB78A836B8380
:1009C0008A81282F30E03D832C834C815D8141302A
:1009D000510541F18C819D818230910534F42C8147
:1009E0003D812115310561F052C04C815D8142305D
:1009F000510551F18C819D8183309105B9F147C03A
:100A0000E9E3F0E08081282F30E08B81882F90E0AF
:100A1000A90102C0559547958A95E2F7CA018170F0
:100A2000898335C0E6E3F0E08081282F30E08B81B8
:100A3000882F90E0A90102C0559547958A95E2F765
:100A4000CA018170898323C0E3E3F0E08081282F0D
:100A500030E08B81882F90E0A90102C05595479521
:100A60008A95E2F7CA018170898311C0E0E3F0E062
:100A70008081282F30E08B81882F90E0A90102C06F
:100A8000559547958A95E2F7CA01817089838981D6
:100A90000F900F900F900F900F90CF91DF910895CE
:100AA000DF93CF93CDB7DEB7AFE5B0E0EFE5F0E091
:100AB000808180688C93CF91DF910895DF93CF93ED
:100AC000CDB7DEB7AFE5B0E0EFE5F0E080818F773E
:100AD0008C93CF91DF910895DF93CF9300D000D016
:100AE000CDB7DEB71C821B8286E98A831B8236C0A3
:100AF00080E06FE00E94140480E06FEF0E945504D4
:100B000080E06B8140E00E9446011C821CC08C8109
:100B1000982F9C5F80E0692F0E94D7048983898188
:100B2000882371F48C81882F90E0880F991F880F9B
:100B3000991F982F8B81890F8F5F0E94B9058A8337
:100B40008C818F5F8C838C81843008F380E06B8193
:100B500041E00E9446018B818F5F8B838B818430C3
:100B600038F28A810F900F900F900F90CF91DF9104
:100B70000895DF93CF9300D000D0CDB7DEB789833F
:100B80008981282F30E03C832B838B819C818830A6
:100B9000910509F470C02B813C81293031055CF549
:100BA0008B819C818430910509F459C02B813C8153
:100BB000253031059CF48B819C818230910509F4AC
:100BC00048C02B813C81233031050CF045C08B811E
:100BD0009C818130910509F439C067C02B813C812B
:100BE0002630310509F441C08B819C818730910505
:100BF0000CF03EC037C02B813C812C30310509F40C
:100C000046C08B819C818D3091055CF42B813C81A9
:100C10002A303105B1F18B819C818B309105A4F58F
:100C20002DC02B813C812E303105B9F18B819C8107
:100C30008E3091057CF12B813C812F30310579F18B
:100C40008B819C818031910569F12FC097E09A8357
:100C50002EC028E02A832BC039E03A8328C085E2E1
:100C60008A8325C094E09A8322C025E02A831FC08E
:100C700036E03A831CC08AE28A8319C091E09A83E5
:100C800016C022E02A8313C033E03A8310C08DE2FD
:100C90008A830DC09DE09A830AC01A8208C02DE3A2
:100CA0002A8305C03BE23A8302C089818A838A8114
:100CB0000F900F900F900F90CF91DF910895DF93D9
:100CC000CF9300D0CDB7DEB71A828AEF8983A3E530
:100CD000B0E0E3E5F0E080818F778C93A3E5B0E0AE
:100CE000E3E5F0E0808180648C93A3E5B0E0E3E588
:100CF000F0E0808188608C93A3E5B0E0E3E5F0E06C
:100D0000808180628C93A3E5B0E0E3E5F0E0808130
:100D10008F7E8C93A3E5B0E0E3E5F0E08081816015
:100D20008C93A3E5B0E0E3E5F0E0808182608C93F2
:100D3000A3E5B0E0E3E5F0E080818B7F8C93A9E54B
:100D4000B0E0E9E5F0E080818E7F8C93A9E5B0E02A
:100D5000E9E5F0E080818D7F8C93E2E5F0E08A8127
:100D60008083ECE5F0E0898180830F900F90CF9134
:100D7000DF910895DF93CF93CDB7DEB7A3E5B0E061
:100D8000E3E5F0E080818E7F8C93A3E5B0E0E3E5BE
:100D9000F0E0808182608C93A3E5B0E0E3E5F0E0D1
:100DA00080818B7F8C93CF91DF910895DF93CF93D8
:100DB000CDB7DEB7A3E5B0E0E3E5F0E08081816088
:100DC0008C93A3E5B0E0E3E5F0E0808182608C9352
:100DD000A3E5B0E0E3E5F0E080818B7F8C93CF91D9
:100DE000DF910895DF93CF93CDB7DEB7A3E5B0E0F1
:100DF000E3E5F0E080818E7F8C93A3E5B0E0E3E54E
:100E0000F0E080818D7F8C93A3E5B0E0E3E5F0E036
:100E1000808184608C93CF91DF910895DF93CF938D
:100E2000CDB7DEB7A3E5B0E0E3E5F0E08081816017
:100E30008C93A3E5B0E0E3E5F0E080818D7F8C93B7
:100E4000A3E5B0E0E3E5F0E0808184608C93CF918E
:100E5000DF910895DF93CF9300D0CDB7DEB79A83AB
:100E6000898389819A8190936100809360000F90BB
:100E70000F90CF91DF910895DF93CF9300D0CDB73E
:100E8000DEB79A83898389819A81909363008093E6
:100E900062000F900F90CF91DF910895DF93CF9371
:100EA0000F92CDB7DEB78983ECE5F0E089818083CE
:100EB0000F90CF91DF9108951F920F920FB60F926E
:100EC00011242F933F934F935F936F937F938F934F
:100ED0009F93AF93BF93EF93FF93DF93CF93CDB7E0
:100EE000DEB78091600090916100009729F0E09159
:100EF0006000F09161000995CF91DF91FF91EF9132
:100F0000BF91AF919F918F917F916F915F914F9121
:100F10003F912F910F900FBE0F901F9018951F9229
:100F20000F920FB60F9211242F933F934F935F931D
:100F30006F937F938F939F93AF93BF93EF93FF93A1
:100F4000DF93CF93CDB7DEB78091620090916300BD
:100F5000009729F0E0916200F09163000995CF912C
:100F6000DF91FF91EF91BF91AF919F918F917F9111
:100F70006F915F914F913F912F910F900FBE0F9006
:100F80001F901895DF93CF9300D0CDB7DEB71A82AC
:100F90008AEF8983A5E4B0E0E5E4F0E08081806831
:100FA0008C93A5E4B0E0E5E4F0E080818F7B8C9346
:100FB000A5E4B0E0E5E4F0E0808188608C93A5E4EE
:100FC000B0E0E5E4F0E080818F7D8C93A5E4B0E0B3
:100FD000E5E4F0E080818F7E8C93A5E4B0E0E5E469
:100FE000F0E080818E7F8C93A5E4B0E0E5E4F0E052
:100FF00080818D7F8C93A5E4B0E0E5E4F0E0808112
:1010000084608C93A9E5B0E0E9E5F0E080818F7B16
:101010008C93A9E5B0E0E9E5F0E0808180688C93ED
:10102000E4E4F0E08A818083E3E4F0E08981808376
:101030000F900F90CF91DF910895DF93CF9300D061
:10104000CDB7DEB79A83898389819A8190936500B1
:10105000809364000F900F90CF91DF910895DF93FC
:10106000CF9300D0CDB7DEB79A83898389819A81E7
:1010700090936700809366000F900F90CF91DF915F
:101080000895DF93CF930F92CDB7DEB78983E3E462
:10109000F0E0898180830F90CF91DF9108951F92B6
:1010A0000F920FB60F9211242F933F934F935F939C
:1010B0006F937F938F939F93AF93BF93EF93FF9320
:1010C000DF93CF93CDB7DEB7809164009091650038
:1010D000009729F0E0916400F09165000995CF91A7
:1010E000DF91FF91EF91BF91AF919F918F917F9190
:1010F0006F915F914F913F912F910F900FBE0F9085
:101100001F9018951F920F920FB60F9211242F93D4
:101110003F934F935F936F937F938F939F93AF937F
:10112000BF93EF93FF93DF93CF93CDB7DEB780915B
:10113000660090916700009729F0E0916600F091B9
:1011400067000995CF91DF91FF91EF91BF91AF912A
:101150009F918F917F916F915F914F913F912F91CF
:101160000F900FBE0F901F901895DF93CF93CDB7C0
:10117000DEB728970FB6F894DEBF0FBECDBF188636
:101180001F828EEE92E09E838D831C821B828FE1F4
:101190009EE49A838983ECE4F0E08F8198859183C3
:1011A0008083EAE4F0E08D819E8191838083E8E48E
:1011B000F0E08B819C8191838083E6E4F0E089817B
:1011C0009A8191838083AEE4B0E0EEE4F0E0808128
:1011D0008F778C93AEE4B0E0EEE4F0E080818F7B1B
:1011E0008C93A9E5B0E0E9E5F0E080818B7F8C93FA
:1011F000A9E5B0E0E9E5F0E080818F7E8C93A9E578
:10120000B0E0E9E5F0E08081877F8C93A9E5B0E06C
:10121000E9E5F0E080818F7D8C93AEE4B0E0EEE410
:10122000F0E080818E7F8C93AEE4B0E0EEE4F0E0FD
:10123000808182608C93AEE4B0E0EEE4F0E08081E7
:101240008B7F8C9328960FB6F894DEBF0FBECDBF70
:10125000CF91DF910895DF93CF9300D0CDB7DEB764
:101260009A838983EAE4F0E089819A81918380837B
:101270000F900F90CF91DF9108951F920F920FB6AC
:101280000F921124DF93CF93CDB7DEB7CF91DF91CB
:101290000F900FBE0F901F9018951F920F920FB6D0
:1012A0000F9211242F933F934F935F936F937F93EC
:1012B0008F939F93AF93BF93EF93FF93DF93CF935E
:1012C000CDB7DEB783E067E00E949703CF91DF914F
:1012D000FF91EF91BF91AF919F918F917F916F910E
:1012E0005F914F913F912F910F900FBE0F901F90E4
:1012F00018951F920F920FB60F921124DF93CF9380
:10130000CDB7DEB7CF91DF910F900FBE0F901F903A
:1013100018951F920F920FB60F921124DF93CF935F
:10132000CDB7DEB7CF91DF910F900FBE0F901F901A
:101330001895DF93CF930F92CDB7DEB7198281E076
:1013400063E041E00E943E000E945F060E946C053F
:1013500089838981843030F480E50E944E070E94A1
:10136000BA06F4CF8981843048F08981873030F41F
:1013700088E20E944E070E94D606E8CF8981873016
:1013800048F089818A3030F48CE30E944E070E9435
:10139000F206DCCF89818D3279F089818B3261F060
:1013A00089818F3249F089818A3231F089818D3388
:1013B00019F089818D3031F480E50E944E070E943A
:1013C0000E07C4CF80E00E944E07C0CFF894FFCF35
:00000001FF
